:020000040800F2
:10000000E805002045010008C1030008C3030008FB
:10001000C7030008CB030008CF030008000000005E
:10002000000000000000000000000000D3030008F2
:10003000D503000800000000D70300085D01000898
:100040005F0100085F0100085F0100085F01000810
:100050005F0100085F0100085F0100085F01000800
:100060005F0100085F0100085F0100085F010008F0
:100070005F0100085F0100085F0100085F010008E0
:100080005F0100085F0100085F0100085F010008D0
:100090005F0100085F0100085F0100085F010008C0
:1000A0005F0100085F0100085F0100085F010008B0
:1000B000950400085F010008652000085F01000842
:1000C0005F0100085F0100085F0100085F01000890
:1000D0005F0100080F2A00085F0100085F010008A7
:1000E0005F0100085F0100085F0100085F01000870
:1000F0005F0100085F0100085F0100085F01000860
:100100005F0100085F0100085F0100085F0100084F
:100110005F0100085F0100085F0100085F0100083F
:100120005F0100085F0100085F0100085F0100082F
:10013000DFF80CD006F08CF800480047D902000820
:10014000E80500200648804706480047FEE7FEE72E
:10015000FEE7FEE7FEE7FEE7FEE7FEE7FEE7FEE777
:10016000D75800083101000830B585B08248406991
:1001700081498968804A1268804B5B69CDE9013208
:10018000CDE903107D4880687C4D00902B687C4D44
:100190006A69A968286802F050FE40E0794AD1886F
:1001A000908801F083FE012800D139E002F01BFFA6
:1001B0000446012C02D102F0BCF820E0022C18D138
:1001C00001F0D8FB6C48426980686B4909686B4B49
:1001D0005B69CDE90131CDE9030268488068674D6C
:1001E00000902B68664D6A69A968286802F025FEB0
:1001F00005E0032C03D102F03BFF01F021FB4FF49B
:100200000061614803F0E7FC0A2003F03BF94FF47A
:1002100000615D4803F0DDFC642003F033F9BDE7C5
:1002200000BF05B030BD1CB502F0C4F998B911E0AB
:100230004FF40061544803F0CEFC4FF4FA7003F021
:1002400021F94FF40061504803F0C3FC4FF4FA70F9
:1002500003F018F9ECE700F0FDFA4C48B0F904009F
:100260004A49B1F90210494CCDE90010B4F9003007
:10027000474CB4F90420B4F90210B4F9000002F0BC
:100280004FFD1CBD10B505F026FB4FF4A06004F037
:10029000ABF803F0C1F8482003F0DAF84FF4E1308E
:1002A00002F04CFB03F028F94FF47A7003F0EAF8FF
:1002B00000F0ABFA00F0A9FA01F0F1FB322002F0F5
:1002C0009EFA01F0CBFEFFF74FFF02F0B3FFFFF7FE
:1002D000AAFF00F0B4F810BD1CB5FFF7D3FF4AE049
:1002E0002C480078012839D12B48006880F0004460
:1002F00029488068284949682346284ACDE90010E2
:100300002749284802F0B2FB27480088A0F57A70F8
:100310000A2190FBF1F084B224480088A0F57A709D
:1003200090FBF1F085B222480088A0F57A7090FB2E
:10033000F1F086B21F480088A0F57A7090FBF1F0CA
:1003400087B24FF400702B4632463946CDE9004063
:100350000C4802F03AFC00200E490870164800785C
:10036000012802D10020154908701348007810B9FF
:10037000022012490870B3E75C0100203C01002014
:100380001C01002088010020001001401A000020FC
:1003900020000020AC000020F0000020140000200D
:1003A0000E000020080000207600002074000020CD
:1003B000720000207000002078000020AE000020B5
:1003C000704700BFFEE700BFFEE700BFFEE700BFCB
:1003D000FEE77047704770471FB51C208DF800007E
:1003E00001208DF8010000208DF8020001208DF819
:1003F0000300684603F0FDFF0121084603F0E1FD1C
:100400004FF4FA60ADF808004720ADF80400002072
:10041000ADF80A00ADF8060001A94FF0804004F0E5
:10042000BCF80121880704F019FE0122114690074B
:1004300004F054FB0121880704F035FB1FBD08B50B
:1004400000F00AF97848794B0090B3F90420B3F929
:100450000210B3F90000744B1B1F00F073FAFFF792
:10046000BBFF08BD10B50020714908600121084696
:1004700003F0A7FD0121880704F015FB10BD10B59E
:1004800000214FF0804004F00EFB0021012003F01A
:1004900098FD10BDFEB50121880704F0E2FD01289A
:1004A0007ED10121800704F0EDFD61480068401C09
:1004B0005F490860084600684FF47A71B0FBF1F2BA
:1004C00001FB12005A49086000F0C6F8574800883E
:1004D000584908805548408848805448808888801A
:1004E0005548008855490988401A00B25449088087
:1004F0005248408850494988401A00B250494880C3
:100500004D4880884D498988401A00B24C498880FE
:100510000846B0F9040010F1050F06DB0846B0F9F3
:100520000400052801DC0020888001F0EBFE044671
:100530004048B0F904003F49B1F902103D4DCDE902
:1005400001040091B5F900303D4DB5F90420B5F92D
:100550000210B5F9000000F0C2FA01F0D3FE044623
:1005600001F0AFFE054601F08BFE064601F07FFE6E
:1005700007462D4B1B1FCDE9006502949A68596808
:1005800018683B4601F0CEFA294800682848006800
:100590001921B0FBF1F201FB120020B9012000E0AB
:1005A00041E02849087022480068214800684FF45B
:1005B000FA71B0FBF1F201FB120070B92248007829
:1005C000012805D1214AD188908801F085FC04E0FA
:1005D0001E4AD188908801F069FC1D480068401CC3
:1005E0001B49086008460068B0F57A7F04D30846C6
:1005F0000068A0F57A7008601648007830B10128CC
:1006000007D0022808D003280CD108E002F019FE18
:1006100008E002F058FE05E002F085FE02E002F07C
:1006200096FE00BF00BFFEBDF400002026000020A3
:1006300000000020080000202C0000201A000020EC
:100640000E000020AC00002078000020880100206F
:1006500004000020AE0000202DE9F0414421D0200C
:1006600003F0A7F8934908704321D02003F0A1F8C4
:100670009049487008460078497840EA012000B265
:100680008D490880B1F9000005F0B4FB06464FF033
:1006900066328A4B05F031FB044605F0E9FB00B2F7
:1006A000854908804621D02003F083F8814988706D
:1006B0004521D02003F07DF87E49C8700846807837
:1006C000C97840EA012000B27B494880B1F90200B4
:1006D00005F090FB06464FF06632784B05F00DFBB7
:1006E000044605F0C5FB00B2734948804821D0207C
:1006F00003F05FF86F4908714721D02003F059F8E3
:100700006C49487108460079497940EA012000B2F5
:1007100069498880B1F9040005F06CFB06464FF08A
:100720006632664B05F0E9FA044605F0A1FB00B21B
:10073000614988803C21D02003F03BF85D498871F5
:100740003B21D02003F035F85A49C871084680791A
:10075000C97940EA012000B259490880B1F9000086
:1007600005F048FB0646574A574B05F0C6FA0446C3
:1007700005F07EFB00B2524908803E21D02003F0F4
:1007800018F84C4908723D21D02003F012F849496D
:1007900048720846007A497A40EA012000B2484986
:1007A0004880B1F9020005F025FB0646454A464B54
:1007B00005F0A3FA044605F05BFB00B2404948800F
:1007C0004021D02002F0F5FF3A4988723F21D02025
:1007D00002F0EFFF3749C8720846807AC97A40EACA
:1007E000012000B236498880B1F9040005F002FB0F
:1007F0000646344A344B05F080FA044605F038FBCF
:1008000000B22F498880BDE8F08110B57521D02055
:1008100002F0CFFF04460CB9002010BD00226B216E
:10082000D02002F0A3FF07221921D02002F09EFF62
:1008300003221A21D02002F099FF03221B21D0208D
:1008400002F094FF00221C21D02002F08FFF012033
:10085000E3E770472DE9F04100270024002500263A
:1008600000BF12E0FFF7F8FE1348B0F9000004449F
:100870001148B0F9020005440F48B0F904000644DD
:10088000052002F0FFFD781CC7B2642FEADB64206C
:1008900094FBF0F000B20D490880642095FBF0F065
:1008A00000B24880642096FBF0F000B28880BDE87A
:1008B000F0810000E20000202C000020666630403D
:1008C000260000207B14AE47E17A64401A00002025
:1008D0002DE9F0410446204605F07EFA0746FA4924
:1008E00005F07CF80646F94905F0AEF805462846BD
:1008F000BDE8F0812DE9F0470446204605F06CFA8A
:10090000824605F0EDFA0746F14AF24B05F083F90D
:10091000054605F0F8FA81464846BDE8F0872DE91E
:10092000F0410446204605F057FA07464FF0804153
:1009300005F054F80646E54905F086F805462846D0
:10094000BDE8F0812DE9F04F89B081460D4614468F
:100950009A46DDF848B005FB05F104FB041005F0EC
:100960003BFA074606F072FC0646304605F0B8FA38
:10097000CDE90201484605F02FFA019005F0B0FAE2
:100980000746DDE9022306F0CDFAD34AD34BCDE981
:10099000040105F040F9CDE9060105F0B4FA064678
:1009A000CBF8006009FB09F104FB041005F014FA10
:1009B000074606F04BFC0646304605F091FACDE9B5
:1009C0000201284605F008FA019005F089FA074669
:1009D000DDE9022306F0A6FABF4AC04BCDE90401C7
:1009E00005F019F9CDE9060105F08DFA0646CAF8B9
:1009F000006009B0BDE8F08F2DE9FF5F06460F46A5
:100A000090461C46002515E0C5F10200B44951F896
:100A10002000C5F10301B24A42F82100C5F10200ED
:100A2000B04951F82000C5F10301AE4A42F8210057
:100A3000681CC5B2032DE7DBA9480660A94807601A
:100A4000A748C168A84804F0C9FF0390A44881687A
:100A5000A64804F0C3FF0290A1484168A44804F0EE
:100A6000BDFF01909E480168A24804F0B7FF0090C6
:100A7000019904F05BFF8346029904F057FF824618
:100A8000039904F053FF81469B4904F0DDFFC8F849
:100A900000009548E16804F0A1FF03909348A16825
:100AA00004F09CFF02909248616804F097FF019067
:100AB0009048216804F092FF0090019904F036FFFD
:100AC0008346029904F032FF8246039904F02EFF18
:100AD0008146894904F0B8FF2060BDE8FF9F2DE9F9
:100AE000FC5F80460C4615461E46DDF830900E9F92
:100AF0008248834B0090494630460D9AFFF722FF0B
:100B0000804841687D48006804F062FF83467E4962
:100B100004F064FF82467C4904F060FF7B49086072
:100B20007B497A48006804F059FF82467948016899
:100B3000504604F0FBFE774908602046FFF7C8FEE8
:100B40000190704841686D48006804F041FF7249A7
:100B5000009004F043FF83466E480168584604F055
:100B6000E5FE8246019904F0E1FE6C49086068499F
:100B70006A48006804F032FF824662484168504685
:100B800004F0D4FE5F494860084601685C4800688C
:100B900004F01EFF83465C4904F020FF82465A4958
:100BA00004F01CFF5E49086059495D48006804F084
:100BB00015FF82465B480168504604F0B7FE59496C
:100BC00008604046FFF784FE01904E4801684C489B
:100BD000006804F0FDFE5049009004F0FFFE8346DB
:100BE00050480168584604F0A1FE8246019904F07D
:100BF0009DFE4D49086046494B48006804F0EEFEF2
:100C0000824640480168504604F090FE3D49086025
:100C100017F1050F10DB052F0EDC2846FFF758FEF5
:100C200083463B4904F0DAFE8246364881685046E6
:100C300004F07CFE33498860BDE8FC9F0FB59DB091
:100C40003A480168006804F0C9FE15903848016808
:100C50003648006804F0C2FE1490364801683348F4
:100C6000006804F0BBFE139031480168006804F08E
:100C7000B5FE1290304801682D48006804F0AEFEC1
:100C800011902C480168006804F0A8FE10902A48D2
:100C900001682848006804F0A1FE0F90264801680A
:100CA000006804F09BFE0E902299209804F096FEB6
:100CB0000C90239904F092FE00210D9005F040F96C
:100CC0003CD121B000BD00000000FA4400FEFF4608
:100CD0002877442A3174513F775AF01ADCA54C40EA
:100CE000FC0000200C0100200000A040000020417A
:100CF0000000A041000082420000C8426C000020B9
:100D000068000020F00000206666E63E50000020EB
:100D10006F12033B540000206666663F58000020B7
:100D20005C000020600000206400002034000020EF
:100D3000380000203C000020400000202399084695
:100D400004F04CFE08902299084604F047FE0690F5
:100D50002099084604F042FE0590069904F0E6FD4D
:100D60000790089904F0E2FD099005F0B9F8CDE983
:100D70000A0106F045FACDE90C0105F0C4F81C9013
:100D80001C99209804F060FE20901C99229804F091
:100D90005BFE22901C99239804F056FE2390139931
:100DA000119804F015FE4FF080410D9004F016FEEE
:100DB0001B900F99149804F0B9FD4FF080410D90ED
:100DC00004F00CFE1A901299159804F001FE0C9094
:100DD000109904F0FDFD0D900E9904F0A7FD1990F7
:100DE0001A99239804F0FAFD0D901999229804F0AD
:100DF000F5FD0C900D9904F0EBFD189019992098D1
:100E000004F0ECFD0D901B99239804F0E7FD0C9085
:100E10000D9904F0DDFD17901B99229804F0DEFD7A
:100E20000D901A99209804F0D9FD0C900D9904F0BA
:100E3000CFFD1690FE49189804F0D0FD0D90FD48A6
:100E400001680D9804F072FDFA490860F849179896
:100E500004F0C4FD0D90F84801680D9804F066FD9B
:100E6000F5490860F249169804F0B8FD0D90F34872
:100E700001680D9804F05AFDF0490860F04818998F
:100E800004F0ACFD0C901D9904F050FD0D90E94864
:100E900001680D9804F04AFD1D90E948179904F087
:100EA0009DFD0C901E9904F041FD0D90E2480168F3
:100EB0000D9804F03BFD1E90E2481F99006804F075
:100EC0008DFD0B90E0481E99006804F087FD0990A5
:100ED000DE48006880F0004007901D9904F07EFD18
:100EE0000890099904F074FD0A900B9904F070FDC4
:100EF000D7490C9004F072FD0D90D64801680D980A
:100F000004F014FDD3490860CE481E99006804F02F
:100F100065FD0B90CC481F99006804F05FFD0990B7
:100F2000CC4801681D9804F059FD0890099904F017
:100F3000FDFC0A900B9904F04BFDC5490C9004F0A0
:100F40004DFD0D90C14801680D9804F0EFFCBF49BC
:100F50000860BC4801681D9804F040FD0B90BB4838
:100F60001F99006804F03AFD0990BA481E9900687C
:100F700004F034FD0890099904F02AFD0A900B99B9
:100F800004F0D4FCB2490C9004F028FD0D90AE485A
:100F900001680D9804F0CAFCAB4908600846016876
:100FA0001D9804F01BFD0B90A8481E99006804F0E2
:100FB00015FD0990A7481F99006804F00FFD0890DF
:100FC000099904F0B3FC0A900B9904F001FDA049C3
:100FD0000C9004F003FD0D909A4801680D9804F000
:100FE000A5FC9849086008460168006804F0F6FC12
:100FF000089095480168006804F0F0FC069093485A
:101000000168006804F0EAFC0490924801680068F6
:1010100004F0E4FC0390049904F088FC0590069920
:1010200004F084FC0790089904F080FC099004F017
:1010300057FFCDE90A0106F0E3F8CDE90C0104F011
:1010400062FF1C9083481C99006804F0FDFC8149F4
:1010500008607E481C99006804F0F6FC7B49086033
:1010600079481C99006804F0EFFC774908607548DE
:101070001C99006804F0E8FC7249086008460168A1
:101080004FF0804004F0AAFC01906E48016801987E
:1010900004F0A4FC03906C4801684FF0404004F059
:1010A0009DFC019068480168019804F097FC02904B
:1010B000039904F08DFC4FF07E51049004F036FC4F
:1010C000059004F00DFFCDE90801624801684FF07A
:1010D000804004F083FC02905A480168029804F0B2
:1010E0007DFC0490594801684FF0804004F076FC84
:1010F000029055480168029804F070FC039004992E
:1011000004F014FC059004F0EBFECDE90601DDE9E6
:10111000082305F007FF4FF066324F4BCDE90A0177
:1011200004F079FDCDE90C0104F0EDFE4B49886037
:10113000484801684FF0804004F050FC0490424859
:101140000168049804F04AFC0690404801684FF09A
:10115000404004F043FC04903A480168049804F0CD
:101160003DFC0590069904F0E1FB079004F0B8FE01
:10117000CDE9080105F086FC4FF06632364BCDE92B
:101180000A0104F048FDCDE90C0104F0BCFE33492E
:1011900048602D4801684FF0804004F01FFC01902A
:1011A00029480168019804F019FC03902748016858
:1011B0004FF0404004F012FC01902448016801986F
:1011C00004F00CFC0290039904F002FC4FF07E51F5
:1011D000049004F0ABFB059004F082FECDE9080119
:1011E0001C4801684FF0804004F0F8FB029017485B
:1011F0000168029804F0F2FB0490134801684FF074
:10120000804004F0EBFB02900E480168029804F065
:10121000E5FB0390049904F089FB059004F060FE5F
:10122000CDE90601DDE9082305F07CFE18E00000A9
:101230006F12033C44000020480000204C000020B6
:1012400000002041400000203C0000203800002029
:101250006F12833A3400002066A64C40F000002054
:101260004FF06632FE4BCDE90A0104F0D4FCCDE923
:101270000C0104F048FEFB49086008460068FA4982
:101280000D9004F067FE06D3F6480068F7490D900C
:1012900004F056FE21D2F348406800210D9004F07E
:1012A00059FE08D2EF48406801460D90F04804F01E
:1012B0008FFBEC494860EB48406800210D9004F03A
:1012C0003FFE0AD2E748406801460D90E84804F026
:1012D0002DFB80F00040E349486000BF21B000BD15
:1012E0000FB597B0DF480068E249089004F0ACFB06
:1012F000099004F0F5FDCDE90A0105F0D3FECDE932
:101300000C0104F000FE1590D6484068D9490890B9
:1013100004F09AFB099004F0E3FDCDE90A0105F021
:10132000C1FECDE90C0104F0EEFD1490CD488068BB
:10133000D049089004F088FB099004F0D1FDCDE974
:101340000A0105F0AFFECDE90C0104F0DCFD1390BD
:10135000C4480068C749089004F076FB099004F07F
:10136000BFFDCDE90A0105F0F3FECDE90C0104F063
:10137000CAFD1290BB484068BE49089004F064FB67
:10138000099004F0ADFDCDE90A0105F0E1FECDE9DB
:101390000C0104F0B8FD1190B2488068B54908907E
:1013A00004F052FB099004F09BFDCDE90A0105F021
:1013B000CFFECDE90C0104F0A6FD1090DDE913107D
:1013C00004F00CFB0F90DDE9101004F007FB0E9009
:1013D0000E99129804F002FB0D900F99159804F0E5
:1013E000FDFA0C900D9904F0A1FAA34908600E993A
:1013F000159804F0F3FA0D900F99129804F0EEFA94
:101400000C900D9904F0E4FA9C4908601499129824
:1014100004F0E4FA0B90109904F0E0FA0D901199A1
:10142000159804F0DBFA0B90139904F0D7FA0C909E
:101430000D9904F07BFA92490860DDE9111004F07F
:10144000CDFA0B90139904F0C9FA0D90DDE9141050
:1014500004F0C4FA0B90109904F0C0FA0C900D99A6
:1014600004F0B6FA8749086086481999006804F0C4
:10147000B5FA0B9082481899006804F0AFFA099009
:101480007E48006880F000400790179904F0A6FAA3
:101490000890099904F09CFA0A900B9904F098FAC4
:1014A00079490C9004F09AFA0D90734801680D98F0
:1014B00004F03CFA7049086072481899006804F01A
:1014C0008DFA0B906E481999006804F087FA09901C
:1014D00069480168179804F081FA0890099904F0A6
:1014E00025FA0A900B9904F073FA67490C9004F0FE
:1014F00075FA0D90614801680D9804F017FA5F497C
:10150000086060480168179804F068FA0B905B481F
:101510001999006804F062FA099057481899006810
:1015200004F05CFA0890099904F052FA0A900B99B9
:1015300004F0FCF954490C9004F050FA0D90504816
:1015400001680D9804F0F2F94D49086008460168F9
:10155000179804F043FA0B9048481899006804F073
:101560003DFA099044481999006804F037FA089048
:10157000099904F0DBF90A900B9904F029FA424921
:101580000C9004F02BFA0D903E4801680D9804F081
:10159000CDF93C49086008460168006804F01EFA6D
:1015A000089037480168006804F018FA069033483C
:1015B0000168006804F012FA04902F48016800687E
:1015C00004F00CFA0390049904F0B0F90590069920
:1015D00004F0ACF90790089904F0A8F9099004F018
:1015E0007FFCCDE90A0105F00BFECDE90C0104F00A
:1015F0008AFC169020481699006804F025FA1E49C6
:1016000008601E481699006804F01EFA1B4908601D
:101610001B481699006804F017FA19490860194820
:101620001699006804F010FA164908600846016827
:101630004FF0804004F0D2F90190124801680198FF
:1016400004F0CCF903900E4801684FF0404004F0DC
:10165000C5F901900A480168019804F0BFF915E046
:1016600066A64C40F00000200000B4420000B4C266
:10167000000034433333E5423400002038000020BA
:101680003C000020400000206F12833A0290039932
:1016900004F09EF94FF07E51049004F047F9059054
:1016A00004F01EFCCDE908015F4801684FF080405E
:1016B00004F094F902905D480168029804F08EF9F4
:1016C00004905B4801684FF0804004F087F9029075
:1016D00058480168029804F081F90390049904F0D5
:1016E00025F9059004F0FCFBCDE90601DDE90823AE
:1016F00005F018FC4FF066324F4BCDE90A0104F0BB
:101700008AFACDE90C0104F0FEFB4C49886046489A
:1017100001684FF0804004F061F904904548016889
:10172000049804F05BF90690414801684FF040408E
:1017300004F054F904903D480168049804F04EF90F
:101740000590069904F0F2F8079004F0C9FBCDE982
:10175000080105F097F94FF06632374BCDE90A01E1
:1017600004F059FACDE90C0104F0CDFB334948608F
:10177000304801684FF0804004F030F901902D4866
:101780000168019804F02AF90390294801684FF094
:10179000404004F023F9019025480168019804F0C5
:1017A0001DF90290039904F013F94FF07E51049053
:1017B00004F0BCF8059004F093FBCDE908011A4849
:1017C00001684FF0804004F009F902901848016860
:1017D000029804F003F90490164801684FF0804025
:1017E00004F0FCF8029011480168029804F0F6F841
:1017F0000390049904F09AF8059004F071FBCDE988
:101800000601DDE9082305F08DFB4FF066320A4B37
:10181000CDE90A0104F0FFF9CDE90C0104F073FBF6
:10182000064908601BB000BD3400002040000020C5
:10183000380000203C00002066A64C40F00000204C
:1018400030B595B01D24272201A9FE4802F071F899
:101850004FF20F022146641C01A820F81120FA491A
:101860000868FA4904F0BAF8054604F0EDFA82B2C5
:101870002146641C01A820F81120F3498868F34927
:1018800004F0ACF8054604F0DFFA82B22146641C8D
:1018900001A820F81120EC494869EC4904F09EF8B1
:1018A000054604F0D1FA82B22046611CCCB201A9EF
:1018B00021F81020E6490868E44904F08FF805464D
:1018C00004F0C2FA82B22146601CC4B201A820F81A
:1018D0001120DF498868DD4904F080F8054604F0EE
:1018E000B3FA82B22146601CC4B201A820F81120CC
:1018F000D7494869D54904F071F8054604F0A4FABF
:1019000082B22046611CCCB201A921F81020D14935
:101910000868CE4904F062F8054604F095FA82B2F0
:101920002046611CCCB201A921F81020C949886861
:10193000C64904F053F8054604F086FA82B2204600
:10194000611CCCB201A921F81020C2494869BF49E5
:1019500004F044F8054604F077FA82B22046611C90
:10196000CCB201A921F810202722B64801F0F2FFDD
:1019700015B030BD30B595B01D24272201A9B1485E
:1019800001F0D7FF2146641C01A830F81100A0F532
:1019900070410F397FD12146621CD4B201AA32F8BE
:1019A000110004F022FA0546A84904F04DF8A649B2
:1019B00008602146621CD4B201AA32F8110004F07A
:1019C00014FA0546A14904F03FF89F498860214672
:1019D000621CD4B201AA32F8110004F006FA0546DE
:1019E0009A4904F031F8984948612146621CD4B202
:1019F00001AA32F8110004F0F8F90546934904F001
:101A000023F8934908602146621CD4B201AA32F837
:101A1000110004F0EAF905468C4904F015F88C49E8
:101A200088602146621CD4B201AA32F8110004F089
:101A3000DCF90546854904F007F8854948612146E7
:101A4000621CD4B201AA32F8110004F0CEF90546A6
:101A50007E4903F0F9FF7F4908602146621CD4B239
:101A600001AA32F8110004F0C0F90546774903F0E5
:101A7000EBFF784988602146621CD4B201AA32F893
:101A8000110004F0B2F90546704903F0DDFF714919
:101A9000486102E0FFE7FFF7D3FE15B030BD10B597
:101AA0006D486949086008460068694908606B48E4
:101AB000684908606A4864498860084680686449E3
:101AC0008860614880686349886066485E49C8608C
:101AD0000846C0685E49C8605B48C0685D49C86028
:101AE0006148594948610846406959494861564822
:101AF000406958494861FFF73DFF10BD70B5064683
:101B00000D4614462946304604F024FA01D22846F0
:101B100070BD2146304604F013FA01D22046F7E7A3
:101B20003046F5E72DE9F04F85B080460E46174662
:101B30001C46109D40460E9903F04AFF0490304623
:101B40000F9903F045FF03900C2095FBF0FA5046E7
:101B500004F042F98146394603F03DFF02904349C3
:101B6000B1F90400FEF7B4FE019037490868049902
:101B700003F034FF3449486035490868039903F09D
:101B80002DFF3349486030498868049903F026FFE7
:101B900081462D480169484603F0C8FE2A4908617C
:101BA0000846C06880F000490A46D16810694A4674
:101BB000FFF7A4FF2449086125498868039903F0C9
:101BC0000DFF814622480169484603F0AFFE2049D7
:101BD00008610846C06880F000490A46D16810696B
:101BE0004A46FFF78BFF1A49086140F24C40844295
:101BF00004DA002014490861154908611B49B1F94C
:101C00000000FEF765FE81460F484169484603F033
:101C1000E5FE0D4988611549B1F90200FEF758FE4D
:101C200081460B484169484603F0D8FE084988615F
:101C300015F1050F02DB052D00DC002505490868BC
:101C4000029915E000F801081C01002000007A4408
:101C50003C0100205C010020CDCC8440000090407D
:101C60006F12033C0000C841CDCC8C3F0E00002019
:101C700003F0B4FEA249486000200861284604F041
:101C8000ABF88246019903F0A6FE81469C48416963
:101C9000484603F0A3FE9A4988619A4A1169506840
:101CA00003F044FE814697488169484603F03EFEB2
:101CB0009449C861944A1169506803F037FE81461F
:101CC00091488169484603F031FE8F49C8618C4ACA
:101CD0001169506803F02AFE8146894881694846A7
:101CE00003F024FE8649C8618848007801287DD128
:101CF00040F24C4084427ADB204604F076F80090B3
:101D00008048C169009803F011FE83467E48C1698E
:101D1000584603F05DFE82467948C169504603F09B
:101D200005FE814604F090F879490880084600884D
:101D300004F05BF88246774A7749FFF7DFFE814679
:101D400004F082F872490880204604F04EF80090B2
:101D50006C48C169009803F03BFE83466A48C1693C
:101D6000584603F035FE82466548C169504603F087
:101D70002FFE814604F068F868490880084600880C
:101D800004F033F88246634A6349FFF7B7FE8146A1
:101D900004F05AF861490880204604F026F80090C3
:101DA0005848C169009803F013FE83465648C1693C
:101DB000584603F0BBFD82465148C169504603F0C6
:101DC000B5FD814604F040F8554908800846008872
:101DD00004F00BF882464F4A4F49FFF78FFE8146C9
:101DE00004F032F84E490880204601E047E031E037
:101DF00003F0FBFF00904348C169009803F096FD93
:101E000083464148C169584603F090FD82463C48EC
:101E1000C169504603F0DCFD814604F015F84149E4
:101E200008800846008803F0E0FF8246394A3A49B4
:101E3000FFF764FE814604F007F83A490880084637
:101E4000038837480288354801883148008800F007
:101E500041FC28E04FF47A702D4908802F49088012
:101E60002F4908802F490880084603882C4802889B
:101E70002A4801882648008800F02CFC13E04FF423
:101E80007A7023490880254908802549088025491A
:101E900008800846038822480288204801881C4898
:101EA000008800F017FC05B0BDE8F08F024640F254
:101EB0004C4082420EDAB2F5617F0BDD40F6340011
:101EC000814207DA40F26C70814203DD01200F4B42
:101ED000187070470020FCE7024640F24C408242F6
:101EE0000CDAB2F5617F09DD814207DAB1F5617F75
:101EF00004DD0020054B1870012070470020FCE72E
:101F00005C0100201C0100203C0100207800002022
:101F10007000002000007A440000FA4472000020A3
:101F2000740000207600002000B589B01E208DF8D6
:101F3000040000208DF8050003208DF80600012024
:101F40008DF8070001A802F054FA0121042002F0E4
:101F500038F80121082002F027F84FF47070ADF82E
:101F6000200048208DF8230008A9FE4801F086FDD6
:101F70004FF47071FB4801F02EFE44F61F60ADF87F
:101F800018004720ADF814000020ADF81A00ADF895
:101F9000160005A9F44802F000FB0020ADF8080087
:101FA000ADF80A000120ADF80C000020ADF80E00DD
:101FB000ADF8100002A9EC4802F0CBFC0420ADF80B
:101FC00008000020ADF80A000120ADF80C00002048
:101FD000ADF80E00ADF8100002A9E34802F0B9FC1C
:101FE0000820ADF808000020ADF80A000120ADF887
:101FF0000C000020ADF80E00ADF8100002A9DA4880
:1020000002F0A7FC0C20ADF808000020ADF80A0093
:102010000120ADF80C000020ADF80E00ADF8100066
:1020200002A9D14802F095FC01220221CE4802F01B
:1020300055FD01220421CC4802F050FD0122082167
:10204000C94802F04BFD01221021C74802F046FDAD
:102050000121C54802F027FD09B000BD10B5FFF70A
:1020600063FF10BD10B50221BF4802F0FAFF01283E
:1020700037D10221BC4803F005F8BC48007860B9AC
:10208000B94802F0CFFFBA4908800120B74908706B
:102090000221B54802F0BAFE23E0B34802F0C2FFC5
:1020A000B449088008460088B149098888420ADA9C
:1020B000AF48008844F62061081AAE4909880844F0
:1020C000AD49088006E0AB480088A9490988401A54
:1020D000A94908800020A54908700021A24802F003
:1020E00095FE0421A04802F0BCFF012837D104214D
:1020F0009D4802F0C7FFA148007860B99A4802F0F5
:1021000094FF9F49088001209C490870022196484D
:1021100002F08EFE23E0944802F087FF9949088080
:10212000084600889649098888420ADA9448008857
:1021300044F62061081A9349098808448E4948806A
:1021400006E0904800888E490988401A8A494880EC
:1021500000208A4908700021834802F069FE0821A6
:10216000814802F07EFF012837D108217E4802F025
:1021700089FF8548007860B97B4802F059FF8349A0
:1021800008800120804908700221774802F06AFE29
:1021900023E0754802F04CFF7D490880084600881E
:1021A0007A49098888420ADA7848008844F620612A
:1021B000081A7749098808446F49888006E07448FE
:1021C000008872490988401A6B49888000206E494E
:1021D00008700021644802F045FE1021624802F0B8
:1021E00040FF012837D110215F4802F04BFF6948BA
:1021F000007860B95C4802F01EFF67490880012042
:10220000644908700221584802F046FE23E056480F
:1022100002F011FF61490880084600885E4909887C
:1022200088420ADA5C48008844F62061081A5B4953
:10223000098808445049C88006E058480088564933
:102240000988401A4C49C880002052490870002172
:10225000454802F021FE10BD03468B4201DD0846D1
:102260007047934201DA1046FAE71846F8E7424809
:10227000808800F57A704A494988401A80B27047D0
:102280002DE9F04146490988454A5288881800EBF3
:10229000D07149100CB242490988601A03F09CFDC4
:1022A00006463549098809B2081B03F095FD074623
:1022B0003C4903F093FB0546314603F0C5FBBDE8FE
:1022C000F0812DE9F04138490988374A5288881849
:1022D00000EBD07149100CB233490988601A03F041
:1022E0007BFD06462449498809B2081B03F074FDAA
:1022F00007462E4903F072FB0546314603F0A4FB66
:10230000BDE8F0812A4A1288294B5B88D01800EB7F
:10231000D072521011B21848C08800B2401A4FF45F
:102320008C725043224A12888A1A90FBF2F000B253
:10233000704794B000254FF480611E4801F04BFCBB
:1023400000BFB7E00C4800881B490988884236DD89
:102350000948008840F6C411884230DC06480088ED
:1023600015492BE0000C0140000800407A000020D5
:102370009A0000209C000020880100207B000020A3
:102380009E000020A00000207C000020A200002071
:10239000A40000207D000020A6000020A80000204E
:1023A000860000200000F0C1820000200000F04103
:1023B0008A000020001001407E0000200880AE4806
:1023C0000088AE494988884208DAAB480088B0F5F1
:1023D000FA7F03DBA8480088A8494880A6484088BF
:1023E000A7490988884209DDA348408840F6C411FE
:1023F000884203DCA0484088A14908809E48408864
:102400009F494988884208DA9B484088B0F5FA7F9E
:1024100003DB994840889A494880974880889949C1
:102420000988884209DD9448808840F6C4118842B2
:1024300003DC91488088934908808F4880889149BF
:102440004988884208DA8C488088B0F5FA7F03DB37
:10245000894880888B4948808748C0888A4909888C
:10246000884209DD8448C08840F6C411884203DCF4
:102470008148C088844908807F48C088824949884B
:10248000884208DA7C48C088B0F5FA7F03DB7A48D6
:10249000C0887D4948804FF400617C4801F09BFB77
:1024A000142000F0EFFF4FF40061784801F091FB39
:1024B000681C85B2B5F57A7FFFF644AF002512E0BF
:1024C0004FF40061714801F086FB642000F0DAFFF0
:1024D0004FF400616D4801F07CFB4FF4617000F037
:1024E000D1FF681C85B2032DEADB272269466848C4
:1024F00001F01FFA00244FF20F022146641C2DF850
:1025000011205E4802882146641C2DF81120428863
:102510002146641C2DF81120594802882146641C6C
:102520002DF8112042882146641C2DF811205548B1
:1025300002882146641C2DF8112042882146641C23
:102540002DF81120504802882046611CCCB22DF88D
:1025500010204D4840882DF81400272269464C4829
:1025600001F0F8F927226946494801F0E2F9BDF87F
:102570000420BDF8021047A003F08AFEBDF8082031
:10258000BDF8061047A003F083FEBDF80C20BDF88F
:102590000A1048A003F07CFEBDF81020BDF80E1014
:1025A00048A003F075FE4FF40061384801F013FBBA
:1025B00000BFFEE710B594B000241D2269463448E0
:1025C00001F0B7F92146641C3DF81100A0F57041F7
:1025D0000F393AD12046611CCCB23DF81000274992
:1025E00008802046611CCCB23DF810002349488089
:1025F0002046611CCCB23DF81000214908802046DD
:10260000611CCCB23DF810001D4948802046611C79
:10261000CCB23DF810001B4908802046611CCCB2AA
:102620003DF81000174948802046611CCCB23DF8A7
:102630001000154908802046611CCCB23DF81000FE
:1026400011494880012014B010BD4FF4FA600B49C5
:1026500008804010488040000949088040104880A8
:102660004000084908804010488040000649088022
:10267000401048800020E6E7880100207E0000200E
:1026800082000020860000208A0000200010014007
:1026900000F80108434831203D2025642C25640AB8
:1026A00000000000434832203D2025642C25640AA8
:1026B00000000000434833203D2025642C25640A97
:1026C00000000000434834203D2025642C25640A86
:1026D000000000002DE9F04104460F4615461E4655
:1026E00021468F4802F08EFC39468D4802F08CFC62
:1026F00029468B4802F08AFC3146894802F088FC62
:10270000BDE8F08110B588B0044601210C2001F02D
:102710004BFCC020ADF81C0003208DF81E001820D3
:102720008DF81F0007A97F4801F0A8F90320ADF834
:102730001C0007A97C4801F0A1F90121022001F049
:1027400040FC601E80B2ADF814004720ADF81000C8
:102750000020ADF81600ADF8120004A9704801F091
:102760001CFF6020ADF800000120ADF80200002041
:10277000ADF80600ADF808006946694801F026FF8B
:102780000821674802F0C0FA0120ADF802000020DD
:10279000ADF806006946624801F04FFF0821604825
:1027A00002F0BBFA0120ADF802000020ADF80600EF
:1027B00069465B4801F08BFF0821594802F0BAFADC
:1027C0000120ADF802000020ADF80600694654482B
:1027D00001F0C5FF0821524802F0B5FA0121504826
:1027E00002F062FA01214E4802F05DF94FF47A736B
:1027F0001A4619461846FFF76DFF08B010BD70B5B0
:1028000004462546B5F5FA7F01DB40F2F315322D7B
:1028100000DA3225454890FBF5F086B23046FFF7E6
:1028200071FF70BD2DE9F04F85B081460C4615460D
:102830001E46B9F1B40F05DCB42C03DCB42D01DC69
:10284000B42E02DD05B0BDE8F08F484603F0CDFAA6
:10285000019003F045FB0746354A364B03F0DBF9A0
:102860000022354BCDE9020103F02EF9824603F038
:102870001EFB80B201460490294802F0C3FB2046AB
:1028800003F0B3FA019003F02BFB8246284A294B50
:1028900003F0C1F907460022274B03F015F9CDE9F3
:1028A000020103F004FB80B2014604901C4802F0D0
:1028B000ABFB284603F099FA019003F011FB0746A1
:1028C0001B4A1C4B03F0A7F900221B4BCDE9020168
:1028D00003F0FAF8824603F0EAFA80B20146049067
:1028E0000F4802F093FB304603F07FFA019003F0AB
:1028F000F7FA07460E4A0F4B03F08DF98246002285
:102900000D4B03F0E1F8CDE9020103F0D0FA80B2FB
:1029100001460490024802F07BFB00BF92E70000F2
:102920000004004000080140000C014040420F003C
:1029300046B6F3FDD438264000407F4010B586B03F
:102940000446012144F2040001F02EFB4FF4007014
:10295000ADF8140003208DF8160018208DF817002C
:1029600005A9FE4801F08AF84FF48060ADF8140024
:1029700004208DF8170005A9F84801F07FF80194AC
:102980000020ADF80800ADF80A00ADF80C00ADF875
:1029900010000C20ADF80E0001A9F14801F0B5FBC4
:1029A0000121EF4801F01FFC012240F22551EC48C3
:1029B00001F025FC25208DF8000003208DF8010092
:1029C0008DF8020001208DF80300684601F011FD2A
:1029D00006B010BD70B504460D46E1B2E04801F006
:1029E0006AFC00BFDE48008810F0800FFAD0204655
:1029F00070BD10B5044600BF4021D94801F0B2FCBB
:102A00000128F9D12146D64801F055FC10BD10B57A
:102A100040F22551D24801F0B1FC012825D140F205
:102A20002551CF4801F0D0FCCD4801F048FCC4B29C
:102A30008A2C02D10120CB490870CA4800780128AD
:102A400013D1C94801780078401CC74A1070C748A4
:102A5000445410460078202807D100201146087001
:102A6000C04908700120C249087010BD2DE9F04F1F
:102A70008BB006460F4690469946DDF850B00025CB
:102A8000BC49484602F0AAFF009003F0C4F900B226
:102A9000ADF80400B749584602F0A0FF009003F0DB
:102AA000BAF900B2ADF80600B349159802F096FFE6
:102AB000009003F0B0F900B2ADF808008822294672
:102AC0006D1C03A84254AF2229466D1C42541C229F
:102AD00029466D1C4254002411E036F81400C0F35E
:102AE00007222846691CCDB203A90A5416F81420FF
:102AF0002846691CCDB203A90A54601CC4B2032C39
:102B0000EBDB002411E037F81400C0F3072228465D
:102B1000691CCDB203A90A5417F814202846691C71
:102B2000CDB203A90A54601CC4B2032CEBDB002411
:102B300011E038F81400C0F307222846691CCDB212
:102B400003A90A5418F814202846691CCDB203A919
:102B50000A54601CC4B2032CEBDB002413E001A870
:102B600030F81400C0F307222846691CCDB203A92F
:102B70000A5401A810F814202846691CCDB203A9F4
:102B80000A54601CC4B2032CE9DB002407E00022D5
:102B90002846691CCDB203A90A54601CC4B2042C97
:102BA000F5DB002406E003A8005D504400F0FF0AB6
:102BB000601CC4B21F2CF6DB8DF82BA0202103A8CB
:102BC00000F08FFE0BB0BDE8F08F2DE9F04F89B01B
:102BD00005460F4690469946DDE912AB002488224F
:102BE0002146641C01A84254AE222146641C425472
:102BF00012222146641C4254A88802122146641CF9
:102C000001A842542A792146641C4254E8880212E1
:102C10002146641C01A84254AA792146641C4254EE
:102C2000288802122046611CCCB201A90A542A78D5
:102C30002046611CCCB201A90A54688802122046C1
:102C4000611CCCB201A90A54AA782046611CCCB2FE
:102C500001A90A5400260CE000222046611CCCB2D7
:102C600001A90A542046611CCCB201A90A54701C67
:102C7000C6B2052EF0DB3A122046611CCCB201A987
:102C80000A542046611CCCB201A90F544FEA2822F5
:102C90002046611CCCB201A90A542046611CCCB26A
:102CA00001A901F800804FEA29222046611CCCB21C
:102CB00001A90A542046611CCCB201A901F8009078
:102CC0004FEA2A222046611CCCB201A90A542046B0
:102CD000611CCCB201A901F800A04FEA2B222046CA
:102CE000611CCCB201A90A542046611CCCB201A9D6
:102CF00001F800B0002607E001A8815D00980844B3
:102D0000C0B20090701CC6B21F2EF5DB00988DF883
:102D10002300202101A800F0E4FD09B0BDE8F08FF8
:102D20002DE9F04F89B005460E4617469846DDE975
:102D300012AB002488222146641C01A84254AC2214
:102D40002146641C42541C222146641C4254AC227D
:102D50002146641C4254C5F307220FE000080140DD
:102D600000380140AB000020AA000020980100209C
:102D7000AD0000200000C842000020412146641C34
:102D800042542146641C4554C6F307222146641C64
:102D900042542046611CCCB201A90E54C7F307224D
:102DA0002046611CCCB201A90A542046611CCCB259
:102DB00001A90F54C8F307222046611CCCB201A917
:102DC0000A542046611CCCB201A901F80080CAF364
:102DD00007222046611CCCB201A90A542046611C7E
:102DE000CCB201A901F800A0CBF307222046611C58
:102DF000CCB201A90A542046611CCCB201A901F849
:102E000000B00020009081460AE001A810F80910E7
:102E100000980844C0B2009009F1010000F0FF09D9
:102E2000B9F11F0FF1DB00988DF82300202101A8D4
:102E300000F057FD09B0BDE8F08F2DE9F04F89B0E3
:102E400083460F4690469946002488222146641CFA
:102E500001A84254AC222146641C42541C22214643
:102E6000641C4254AD222146641C4254EB4958462E
:102E700002F0B4FD009002F0E7FF85B22A1221466D
:102E8000641C01A842542146641C4554E349384659
:102E900002F0A4FD009002F0D7FF85B22A1221466D
:102EA000641C01A842542046611CCCB201A90D54F7
:102EB000DA49404602F092FD009002F0C5FF85B26B
:102EC0002A122046611CCCB201A90A542046611C7A
:102ED000CCB201A90D54D149484602F07FFD0090C3
:102EE00002F0B2FF85B22A122046611CCCB201A9C1
:102EF0000A542046611CCCB201A90D54C74912984E
:102F000002F06CFD009002F09FFF85B22A1220466D
:102F1000611CCCB201A90A542046611CCCB201A9A3
:102F20000D54BE49139802F059FD009002F08CFF39
:102F300085B22A122046611CCCB201A90A5420464F
:102F4000611CCCB201A90D54B449149802F046FD9D
:102F5000009002F079FF85B22A122046611CCCB2A3
:102F600001A90A542046611CCCB201A90D54AB49F9
:102F7000159802F033FD009002F066FF85B22A1228
:102F80002046611CCCB201A90A542046611CCCB277
:102F900001A90D54A149169802F020FD009002F0FD
:102FA00053FF85B22A122046611CCCB201A90A54F3
:102FB0002046611CCCB201A90D544FF0000A002636
:102FC00006E001A8805D504400F0FF0A701CC6B204
:102FD0001F2EF6DB8DF823A0202101A800F081FC34
:102FE00009B0BDE8F08F8E48007801283ED100205E
:102FF0008B4908708B4800788A2811D1894840781D
:103000008B280DD1874880781C2809D18548C07845
:10301000AA2805D183480079A32801D1012070474F
:10302000804800788A280DD17E4840788B2809D1C5
:103030007C4880781C2805D17A48C078AD2801D119
:103040000220ECE7774800788A280DD1754840784F
:103050008B2809D1734880781C2805D17148C07825
:10306000AE2801D10320DAE70020D8E70020D6E718
:1030700070B5042529466D1C6A48445C4FF6FF7004
:1030800000EA042429466D1C6648405C044320463F
:1030900002F0ABFE0646614902F0D6FC62490860C8
:1030A00029466D1C5F48445C4FF6FF7000EA04241B
:1030B00029466D1C5B48405C0443204602F095FEA7
:1030C0000646564902F0C0FC5749886029466D1CE7
:1030D0005448445C4FF6FF7000EA04242846691CFB
:1030E000CDB25049085C0443204602F07EFE0646FD
:1030F0004A4902F0A9FC4C4948612846691CCDB2F6
:1031000048490C5C4FF6FF7000EA04242846691C0D
:10311000CDB24449085C0443204602F066FE0646F0
:103120003E4902F091FC414908602846691CCDB235
:103130003C490C5C4FF6FF7000EA04242846691CE9
:10314000CDB23849085C0443204602F04EFE0646E4
:10315000324902F079FC354988602846691CCDB2B5
:1031600030490C5C4FF6FF7000EA04242846691CC5
:10317000CDB22C49085C0443204602F036FE0646D8
:10318000264902F061FC294948612846691CCDB2F4
:1031900024490C5C4FF6FF7000EA04242846691CA1
:1031A000CDB22049085C0443204602F01EFE0646CC
:1031B0001A4902F049FC1E4908602846691CCDB234
:1031C00018490C5C4FF6FF7000EA04242846691C7D
:1031D000CDB21449085C0443204602F006FE0646C0
:1031E0000E4902F031FC124988602846691CCDB2B4
:1031F0000C490C5C4FF6FF7000EA04242846691C59
:10320000CDB20849085C0443204602F0EEFD0646B4
:10321000024902F019FC0649486170BD00007A4479
:10322000AD000020980100201C0100203C0100207E
:103230005C01002002207549086001207449087073
:10324000704710B57148006828B94FF400617148A3
:1032500000F0C1FC08E06D4800684B2804D14FF431
:1032600000616C4800F0B5FC68480068B0F5FA7F72
:1032700005D14FF40061674800F0ADFC22E06348DF
:103280000068A0F500710D3905D14FF40061614867
:1032900000F09FFC16E05D480068A0F5007126393B
:1032A00005D14FF400615B4800F095FC0AE05748F7
:1032B0000068A0F500713F3904D14FF40061554812
:1032C00000F087FC10BD10B550480068B0F5FA7FDB
:1032D00005D14FF400614F4800F07DFC22E04B48DF
:1032E0000068A0F500710D3905D14FF4006149481F
:1032F00000F06FFC16E045480068A0F50071263923
:1033000005D14FF40061434800F065FC0AE03F48F6
:103310000068A0F500713F3904D14FF400613D48C9
:1033200000F057FC10BD10B53848006828B94FF4BC
:103330000061384800F04FFC08E0344800684B2832
:1033400004D14FF40061334800F043FC10BD10B5C8
:103350002E480068B0F5FA7F05D14FF400612D4882
:1033600000F039FC51E029480068A0F500710D39E2
:1033700005D14FF40061274800F02BFC45E02348BD
:103380000068A0F50071263905D14FF4006121488D
:1033900000F021FC39E01D480068A0F500713F39BC
:1033A00005D14FF400611B4800F013FC2DE01748D5
:1033B0000068B0F5167F05D14FF40061154800F0A4
:1033C0000AFC22E011480068A0F50071713905D1AE
:1033D0004FF400610F4800F0FCFB16E00B4800685A
:1033E000A0F500718A3905D14FF40061094800F059
:1033F000F2FB0AE005480068A0F50071A33904D18A
:103400004FF40061034800F0E4FB10BD040000200D
:10341000AE0000200010014008B50121102000F08E
:10342000C3FD4FF44060ADF8000003208DF80200AA
:1034300010208DF803006946044800F01FFB4FF48C
:103440004061024800F0C5FB08BD000000100140CB
:1034500010B504466FF0040001F016F8E11704EB14
:103460005171C1F3C701224A11701046007800EB78
:103470004001C1EBC0104FF6FF7101EAC0001D49C9
:10348000088010BD01461B4A12884A434FF0E023D2
:103490005A6100229A6101221A6100BF4FF0E022B6
:1034A000106910F0010F02D010F4803FF6D0002216
:1034B0004FF0E0231A619A61704701460C4A127876
:1034C0004A434FF0E0235A6100229A6101221A61B7
:1034D00000BF4FF0E022106910F0010F02D010F48D
:1034E000803FF6D000224FF0E0231A619A617047C6
:1034F000B0000020B200002008B50121082000F033
:1035000053FD4FF48060ADF8000003208DF80200F9
:1035100014208DF803006946D34800F0AFFA4FF449
:103520000060ADF8000003208DF8020014208DF833
:1035300003006946CC4800F0A1FA08BD00BF7047FF
:1035400041F2883000E0401E0028FCD1704700B5F1
:103550004FF40060C4491031086040100860FFF764
:10356000EDFFC1480830006808B9012000E00020E4
:1035700010F4006F01D0002000BD4FF40060BA4984
:1035800014310860FFF7DAFFB7480830006810F41C
:10359000006F01D00020EFE74FF40060B249143112
:1035A0000860FFF7CBFF0120E6E700B54FF480602D
:1035B000AD4914310860FFF7C1FF4FF40060AA491C
:1035C00014310860FFF7BAFF4FF48060A64910314C
:1035D0000860FFF7B3FF4FF40060A34910310860A3
:1035E000FFF7ACFF00BD00B54FF480609E49143179
:1035F0000860FFF7A3FF4FF400609B491431086097
:10360000FFF79CFF4FF48060974910310860FFF787
:1036100095FF4FF48060944914310860FFF78EFFE6
:1036200000BD00B54FF480608F4914310860FFF78A
:1036300085FF4FF400608C4910310860FFF77EFF72
:103640004FF48060884910310860FFF777FF4FF42E
:103650008060854914310860FFF770FF00BD00B538
:103660004FF48060804914310860FFF767FF4FF422
:1036700000607D4910310860FFF760FF4FF4806003
:10368000794910310860FFF759FF77480830006822
:1036900010F4006F08D04FF4806073491431086053
:1036A000FFF74CFF002000BD4FF480606E491431DD
:1036B0000860FFF743FF0120F5E700B508211FE090
:1036C0004FF48062684B14331A60FFF737FF10F035
:1036D000800F05D04FF40062634B10331A6004E092
:1036E0004FF40062604B14331A604206100EFFF76D
:1036F00025FF4FF480625C4B10331A60FFF71EFF0A
:103700000A00A1F10103D9B2DAD14FF48062564B1D
:1037100014331A6000BD00B5082100200A02524B84
:1037200010331A6017E04206100E4FF480624E4BC1
:1037300014331A60FFF702FF4FF480624A4B1033D4
:103740001A60FFF7FBFE484A0832126812F4006F55
:1037500001D040F001000A00A1F10103D9B2E2D189
:103760004FF48062404B14331A6000BD70B50646BA
:103770000C461546FFF7EBFE08B9002070BD304639
:10378000FFF79BFFFFF76BFF18B9FFF70EFF002055
:10379000F4E72046FFF791FFFFF761FF2846FFF7A8
:1037A0008CFFFFF75CFFFFF700FFFFF7C9FE01206A
:1037B000E4E770B504460D46FFF7C9FE08B90020DE
:1037C00070BD2046FFF779FFFFF749FF18B9FFF7F3
:1037D000ECFE0020F4E72846FFF76FFFFFF73FFFFE
:1037E000FFF7B5FE611CC8B2FFF767FFFFF737FFB1
:1037F000FFF791FF0646FFF714FFFFF7D6FE3046AE
:10380000DEE72DE9F04107460E4615469846FFF7DC
:103810009EFE3846FFF751FFFFF721FF3046FFF7C6
:103820004CFFFFF71CFFFFF792FE791CC8B2FFF7B1
:1038300044FFFFF714FF00240DE0FFF76CFF08F8CA
:103840000400681EA04202D1FFF7EBFE01E0FFF783
:10385000CAFE601CC4B2AC42EFDBFFF7A6FEFFF766
:103860006DFEBDE8F0810000000C01402DE9F04143
:1038700007460D4616461C460121084600F087FB08
:10388000384601F003FC2548048025480560466061
:103890001020234988600846C46000200861802009
:1038A000486100208861C86108624FF48050486216
:1038B00000208862384601F082FCBDE8F08110B536
:1038C00004460021204601F0A5FC14480088144954
:1038D000C860144801F073FC0121204601F09AFCF5
:1038E00010BD70B504460D462B4622460E490D48C4
:1038F000FFF7BCFF012280210B48001F00F09FFC56
:103900000848FFF7DCFF00BF4FF4005001F09AFCBD
:103910000128F9D1400301F0A8FC70BDB4000020DB
:10392000B8010020440002400438014001460888E4
:10393000704730B503460C461546002207E018468E
:10394000FFF7F4FF24F812009B1C501C82B2AA421D
:10395000F5DB30BD2DE9F04105460E46174601F076
:10396000D2FC284601F016FD8046B8F1040F04D0C1
:1039700001F0CFFC0020BDE8F081002410E036F813
:103980001410022202FB045001F0C7FD8046B8F17A
:10399000040F03D001F0BDFC0020ECE7601C84B2F2
:1039A000BC42ECDB01F0B5FC0120E4E710B50446B5
:1039B000C549601A8C422FD009DCC448201810D0A9
:1039C000B0F5806F16D0B0F5006F4AD11BE0B0F5AE
:1039D000806F2AD0B0F5006F30D0B0F5406F40D185
:1039E00035E00121042000F0F9FA0021042000F064
:1039F000F5FA37E00121082000F0F0FA0021082054
:103A000000F0ECFA2EE00121102000F0E7FA00218E
:103A1000102000F0E3FA25E00121202000F0DEFA7A
:103A20000021202000F0DAFA1CE00121402000F003
:103A3000D5FA0021402000F0D1FA13E001218020C6
:103A400000F0CCFA0021802000F0C8FA0AE0012141
:103A5000080200F0C3FA00214FF4807000F0BEFAB3
:103A600000E000BF00BF10BD10B50121084600F006
:103A7000B5FA0021012000F0B1FA10BD2DE9F041A6
:103A8000024600250026002000230024002791F88C
:103A900003C00CF00F0591F803C01CF0100F03D009
:103AA00091F802C04CEA050591F800C0BCF1000F86
:103AB00031D0146800202BE04FF0010C0CFA00F319
:103AC000B1F800C00CEA03069E4220D183004FF0FB
:103AD0000F0C0CFA03F7BC4305FA03FC4CEA040490
:103AE00091F803C0BCF1280F06D14FF0010C0CFA7D
:103AF00000FCC2F814C00AE091F803C0BCF1480F02
:103B000005D14FF0010C0CFA00FCC2F810C0401CAB
:103B10000828D1D31460B1F800C0BCF1FF0F34DD28
:103B2000546800202EE000F1080C4FF0010808FA5C
:103B30000CF3B1F800C00CEA03069E4221D18300C9
:103B40004FF00F0C0CFA03F7BC4305FA03FC4CEAE8
:103B5000040491F803C0BCF1280F05D100F1080C52
:103B600008FA0CF8C2F8148091F803C0BCF1480FB1
:103B700007D100F1080C4FF0010808FA0CF8C2F860
:103B80001080401C0828CED35460BDE8F0814FF669
:103B9000FF710180022181700421C17070470246CB
:103BA000002093680B4201D0012000E00020704704
:103BB0000146886880B2704702460020D3680B42F5
:103BC00001D0012000E0002070470146C86880B2A3
:103BD000704701617047416170470AB1016100E0BF
:103BE00041617047C16070474FF480320A4382617F
:103BF0008161826182698269704702460020344B8C
:103C000018684FF68073184040EA02100843304BA2
:103C1000186070472F49C8617047F0B50A46002305
:103C20000024002100252A4E7168C0F3034583B2A9
:103C300000F44016B6F5401F08D121F07061244E03
:103C4000766826F07066224F7E6012E000F48016DF
:103C5000B6F5801F06D1032606FA05F4A14341F00C
:103C6000706106E0460D360103FA06F6B14341F0F5
:103C7000706122B1460D360103FA06F63143144E47
:103C80007160F0BD30B500228B071C0F0F2303FAC3
:103C900004F20F4B08338C1053F8243093430C4C30
:103CA00008348D1044F8253023468C1053F8243006
:103CB0008C07240F00FA04F42343054C08348D10BC
:103CC00044F8253030BD00000014014000F8FEBF6C
:103CD0000000014000002042DC48006840F0010084
:103CE000DA49086008464068D9490840D749486021
:103CF00008460068D7490840D4490860084600686B
:103D000020F4802008600846406820F4FE004860E7
:103D1000002088607047CD49096821F48031CB4A82
:103D200011601146096821F480211160B0F5803FCF
:103D300003D0B0F5802F0ED106E0C449096841F4E4
:103D40008031C24A116007E0C049096841F4A021EE
:103D5000BE4A116000E000BF00BF704710B50146C9
:103D60000022002300204A11012A02D1B74C236807
:103D700006E0022A02D1B54C236A01E0B34C636A23
:103D800001F01F02012494401C4201D0012000E0F8
:103D9000002010BD38B5002000900024002500BF91
:103DA0003120FFF7DBFF05460098401C00901DB94D
:103DB0000098B0F5A06FF3D13120FFF7CFFF08B125
:103DC000012400E00024204638BD014600209F4A1F
:103DD000106820F0F80040EAC100106070479E496A
:103DE0000860704702460020984B586820F47C1009
:103DF00042EA01031843954B58607047964908669C
:103E0000704701460020914A506820F003000843A3
:103E1000506070478D48406800F00C0070470146C4
:103E200000208A4A506820F0F00008435060704734
:103E300001460020854A506820F4E0600843506045
:103E4000704701460020814A506820F4605040EAE3
:103E5000C1005060704729B17C4A527A02437B4BC3
:103E60005A7204E0794A527A8243784B5A72704708
:103E70007A490860704701460020744A506820F46F
:103E800040400843506070470021754A11706F4AE6
:103E900082F82010012802D0042808D103E0012173
:103EA0006F4A117004E005216D4A117000E000BFF7
:103EB00000BF70476B49086070476449096A014355
:103EC000624A11627047674944390860704730B5EB
:103ED00000210022002400235C4D6D6805F00C01D8
:103EE00021B1042905D0082923D105E05E4D0560E4
:103EF00022E05D4D05601FE0544D6D6805F47012C1
:103F0000022505EB9242514D6D6805F480341CB9D1
:103F1000564D554305600BE04C4D6D6815F4003F60
:103F200003D0524D5543056002E04F4D55430560A7
:103F300002E04D4D056000BF00BF444D6D6805F0C7
:103F4000F00109094A4D6B5C0568DD4045603F4D55
:103F50006D6805F4E061090A454D6B5C4568DD401C
:103F600085603A4D6D6805F46051C90A404D6B5C3F
:103F70004568DD40C560354D6D6805F44041890BED
:103F80003C4D6B5CC568B5FBF3F5056130BD29B1EF
:103F90002E4A526902432D4B5A6104E02B4A526962
:103FA00082432A4B5A61704729B1284A92690243D9
:103FB000264B9A6104E0254A92698243234B9A6119
:103FC000704729B1214AD2690243204BDA6104E0EB
:103FD0001E4AD26982431D4BDA61704729B11B4AE0
:103FE000D2680243194BDA6004E0184AD26882436F
:103FF000164BDA60704729B1144A12690243134B19
:104000001A6104E0114A12698243104B1A61704729
:1040100014494039086070470F49C86470470B491C
:10402000C87170470948406A40F08070074948628B
:10403000704701460020054A92680A4201D00120DB
:1040400000E000207047014988727047001002406C
:104050000000FFF8FFFFF6FE00004242D800424297
:10406000201002408004424200127A0000093D0004
:10407000B6000020C600002010B50446D749601ADB
:104080008C422BD006DCD648201813D0B0F5806FB8
:1040900038D119E0B0F5806F2AD0B0F56C4F31D12E
:1040A00001218803FFF79AFF00214FF48040FFF7BA
:1040B00095FF28E001214804FFF79DFF00214FF400
:1040C0000030FFF798FF1EE001218804FFF793FFFF
:1040D00000214FF48020FFF78EFF14E00121C80477
:1040E000FFF789FF00214FF40020FFF784FF0AE06B
:1040F00001210805FFF77FFF00214FF48010FFF733
:104100007AFF00E000BF00BF10BD2DE9F04786B088
:1041100005460E460024A24600BF00BF00272F46DA
:104120002C8A4CF6FF700440F08804432C82AC8942
:104130004EF6F3100440B088318908437189084372
:104140000443AC81AC8A4FF6FF400440B08904437D
:10415000AC8201A8FFF7BBFEA248874202D1DDF87E
:1041600010A001E0DDF80CA00AEBCA0000EB0A1079
:1041700031688900B0FBF1F86420B8FBF0F004016D
:104180002009642101FB1089322000EB0910B0FBEB
:10419000F1F000F00F0004432C8106B0BDE8F08779
:1041A0004FF41651016000218180C18001810C21F2
:1041B000418100218181704710B502460020108A9C
:1041C0004FF2FF0318400B884C8823438C8823430D
:1041D000CC8823431843108210BD00210180418008
:1041E0008180C180704721B1828942F4005282816E
:1041F00004E082894DF6FF731A4082817047F0B562
:10420000034600240026002500201846C1F342146E
:1042100001F01F06012707FA06F5012C01D10C3029
:1042200004E0022C01D1103000E014301AB107680C
:104230002F43076002E00768AF430760F0BD1AB183
:10424000838A0B43838202E0838A8B438382704795
:10425000028A4FF6F0731A400282028A0A430282EF
:10426000704782894FF2FF731A40828182890A4324
:104270008281704721B1828942F00202828104E08A
:1042800082894FF6FD731A4082817047028A4FF689
:10429000DF731A400282028A0A430282704721B108
:1042A000028A42F48042028204E0028A4BF6FF73E3
:1042B0001A4002827047C1F30802828070470146AB
:1042C0008888C0F308007047818941F0010181812D
:1042D0007047028BD2B20283028B42EA0122028330
:1042E0007047028B02F47F420283028B0A430283EF
:1042F000704721B1828A42F02002828204E0828AE1
:104300004FF6DF731A408282704721B1828A42F0F1
:104310001002828204E0828A4FF6EF731A40828292
:10432000704721B1828A42F00802828204E0828AC8
:104330004FF6F7731A4082827047828A4FF6FB73FA
:104340001A408282828A0A438282704721B1828A1D
:1043500042F00202828204E0828A4FF6FD731A4024
:10436000828270470246002013880B4201D0012050
:1043700000E000207047CA430280704770B50246D3
:104380000B460024002100250020C3F3421503F052
:104390001F01012606FA01F1012D02D19689314053
:1043A00006E0022D02D1168A314001E0968A3140A2
:1043B0001C12012606FA04F41688344011B10CB11F
:1043C000012000E0002070BD10B5002200230A1279
:1043D00001249440A3B2DC43048010BD004C004093
:1043E00000BCFFBF0038014031490143314A116030
:1043F000704770B5002100230F22C4780CB32D4CF8
:10440000246804F4E064C4F5E064210AC1F1040303
:10441000CA40447804FA03F1847814402143090126
:10442000254C0678A155047804F01F050124AC4002
:1044300005786D114FF0E02606EB8505C5F80041C3
:1044400009E0047804F01F050124AC401B4D0678F8
:10445000761145F8264070BD194A0A400243154BB3
:104460001B1F1A60704739B1124A121D12680243AD
:10447000104B1B1D1A6006E00E4A121D1268824383
:104480000C4B1B1D1A607047042808D14FF0E02127
:10449000096941F004014FF0E022116107E04FF09B
:1044A000E021096921F004014FF0E0221161704719
:1044B0000000FA050CED00E000E400E080E100E01F
:1044C00080FFFF1F10B50446F749601A8C4245D0A3
:1044D0000CDCB4F1804F1DD0F448201823D0B0F587
:1044E000806F29D0B0F5006F54D12EE0B0F5806F09
:1044F0003DD0B0F58E3F03D0B0F5923F4AD13FE0BA
:104500000121C802FFF76AFD00214FF40060FFF7A8
:1045100065FD40E001210846FFF76DFD0021012007
:10452000FFF769FD37E001210220FFF764FD00215C
:104530000220FFF760FD2EE001210420FFF75BFD64
:1045400000210420FFF757FD25E001210820FFF797
:1045500052FD00210820FFF74EFD1CE00121102034
:10456000FFF749FD00211020FFF745FD13E0012171
:104570002020FFF740FD00212020FFF73CFD0AE04E
:1045800001214803FFF72AFD00214FF40050FFF7F7
:1045900025FD00E000BF00BF10BD028802F08F02C1
:1045A0000280CA884B881A4303881A4302808A888B
:1045B00082850A880285BE4A904202D0BD4A904256
:1045C00001D10A7A028601228282704770B50024E6
:1045D00000220023058C4FF6FE7635400584028CC0
:1045E0008388048B4FF68F752C400D882C43751EE5
:1045F0002A400D892A434D882A43CD888586AC4DB3
:10460000A84202D0AB4DA84213D14FF6F7752A400D
:104610004D892A434FF6FB752A408D882A4347F679
:10462000FF652B4047F6FF552B408D892B43CD89E5
:104630002B4383800483028470BD70B50024002264
:104640000023058C4FF6EF7635400584028C838875
:10465000048B48F6FF752C400D884FF6FF7606EA6E
:1046600005252C434FF6DF752A400D8906EA05150E
:104670002A434D8806EA05152A43CD8805878C4DC7
:10468000A84202D08B4DA8421DD14FF67F752A401B
:104690004D894FF6FF7606EA05152A434FF6BF759A
:1046A0002A408D8806EA05152A4347F6FF352B4038
:1046B00047F2FF752B408D8906EA85052B43CD898E
:1046C00006EA85052B4383800483028470BD70B5A0
:1046D000002400220023058C4FF6FF663540058438
:1046E000028C8388848B4FF68F752C400D882C4369
:1046F0004FF6FF552A400D894FF6FF7606EA05254D
:104700002A434D8806EA05252A43CD888587684DCA
:10471000A84202D0674DA8421DD14FF2FF752A4032
:104720004D894FF6FF7606EA05252A434FF6FF35F9
:104730002A408D8806EA05252A4346F6FF752B4058
:1047400045F6FF752B408D8906EA05152B43CD896B
:1047500006EA05152B4383808483028470BD70B5FF
:10476000002400220023058C4EF6FF763540058498
:10477000028C8388848B48F6FF752C400D884FF699
:10478000FF7606EA05252C434DF6FF752A400D8974
:1047900006EA05352A434D8806EA05352A43CD88C1
:1047A000A0F84050424DA84202D0424DA84207D145
:1047B000C3F30D038D894FF6FF7606EA85152B436B
:1047C00083808483028470BD828B4FF2FF331A4052
:1047D0008283828B4FF6FF7303EA01231A4382839D
:1047E0007047F0B50C461546002100220026078CC4
:1047F0004EF6FF7C07EA0C070784818B028C4FF68C
:10480000FF7707EA043640F6FF4739404FF6FF7757
:1048100007EA05274FF6FF7C0CEA033C47EA0C0742
:1048200039434DF6FF773A4046F480573A43818347
:104830000284F0BD828B4FF6F3731A408283828B21
:104840000A4382837047F0B50C46154600210022CA
:104850000026078C4FF6FF6C07EA0C070784818B54
:10486000028C4FF6FF7707EA04264FF60C773940A3
:104870004FF6FF7707EA03172F4339434FF6FF57E9
:104880003A4046F480773A4381830284F0BD028B3C
:104890004FF2FF331A400283028B4FF6FF7303EA95
:1048A00001231A43028370470010004000FCFFBF41
:1048B000002C014000340140F0B50C4615460021A3
:1048C00000220026078C4FF6EF7C07EA0C070784CE
:1048D000018B028C4FF6FF7707EA041640F6FF477C
:1048E00039404FF6FF7707EA033739434FF6FF7732
:1048F00007EA052739434FF6DF773A4046F01007BD
:104900003A4301830284F0BD028B4FF6F3731A40E1
:104910000283028B0A4302837047F0B50C461546AA
:1049200000210022068C4FF6FE773E400684018B64
:10493000028C4FF60C7631407E1C06EA03162E439D
:1049400031437E1E324044F001063243018302842B
:10495000F0BD70B505460C46208850B92389A28861
:1049600061882846FFF7D9FFE1882846FFF7CCFF8A
:1049700025E0208804280AD12389A2886188284656
:10498000FFF79AFFE1882846FFF781FF17E02088AC
:1049900008280AD12389A28861882846FFF753FF97
:1049A000E1882846FFF746FF09E02389A28861884D
:1049B0002846FFF716FFE1882846FFF705FF70BD80
:1049C0002DE9F04105460C4600260127608808B90C
:1049D000022600E00026A088012801D1022700E07D
:1049E00001272088A0B92389A28861882846FFF77B
:1049F00094FFE1882846FFF787FF23893A4631462E
:104A00002846FFF759FFE1882846FFF740FF13E0EB
:104A10002389A28861882846FFF74EFFE18828464F
:104A2000FFF735FF23893A4631462846FFF775FFE1
:104A3000E1882846FFF768FFBDE8F0810A884B88C7
:104A40001A438B881A43CB881A430B891A434B8924
:104A50001A438B891A43A0F8442070474FF6FF7120
:104A6000818000210180C180418001727047002156
:104A7000018041808180C180018141818181C1812A
:104A80007047002101804180012181800021C18087
:104A9000018170470021018041808180C1800181B6
:104AA00041818181704721B1028842F00102028078
:104AB00004E0028840F2FE331A400280704731B1B0
:104AC000B0F8442042F40042A0F8442005E0B0F8D9
:104AD0004420C2F30E02A0F8442070471AB1838923
:104AE0000B43838102E083898B43838170478182FA
:104AF000704741EA0203A0F8483070471AB1838931
:104B00000B43838102E083898B4383817047018952
:104B10004FF6F8721140018170470A460021018961
:104B20004FF68F73194011430181704730B5044629
:104B30000D4629462046FFF7F0FF208940F0070088
:104B4000208130BD2DE9F04104460D4616461F4632
:104B5000602D06D13B46012231462046FFF7ACFED0
:104B600005E03B46012231462046FFF7D6FE2946A6
:104B70002046FFF7D2FF208940F007002081BDE8E2
:104B8000F08170B50C4600210189C9B244EA0205E2
:104B90004FF6FF7606EA032635432943018170BDAF
:104BA0002DE9F04105460E46174698460024434637
:104BB0003A4631462846FFF7E4FF2C894FF6F87055
:104BC000044044F007044FF68F70044044F0700432
:104BD0002C81BDE8F081F0B504460D4616461F460F
:104BE0003B46324629462046FFF7CBFF208940F45A
:104BF00080402081F0BD0185828270470A460021F5
:104C0000018840F28F331940114301807047F0B59D
:104C10000C4615461E460021002200230189028B06
:104C2000038C4FF6F877394021434FF6FC473A4062
:104C300040F201173A434FF6DD773B404FF6FF77DE
:104C400007EA06172F433B43018102830384F0BD2B
:104C50000A460021018B4FF68F73194011430183DF
:104C600070470A460021018B48F6FF7319404FF642
:104C7000FF7303EA02231943018370470A460021A8
:104C8000818B4FF68F7319401143818370470A4619
:104C90000021818B48F6FF7319404FF6FF7303EA3A
:104CA000022319438183704721B1028842F08002B8
:104CB000028004E0028840F27F331A40028070478D
:104CC00021B1828842F00402828004E082884FF69B
:104CD000FB731A408280704721B1828842F008023B
:104CE000828004E082884FF6F7731A408280704712
:104CF00021B1828842F00102828004E082884FF66E
:104D0000FE731A40828070470A460021018B4FF6DD
:104D1000F77319401143018370470A460021018B44
:104D20004FF2FF7319404FF6FF7303EA0223194352
:104D3000018370470A460021818B4FF6F7731940B3
:104D40001143818370470A460021818B4FF2FF7324
:104D500019404FF6FF7303EA02231943818370471A
:104D60000A460021018B4FF6FB7319401143018362
:104D700070470A460021018B4FF6FF3319404FF66A
:104D8000FF7303EA02231943018370470A46002197
:104D9000818B4FF6FB7319401143818370470A469C
:104DA0000021818B4FF6FF3319404FF6FF7303EA62
:104DB00002231943818370470A460021018B4FF675
:104DC0007F7319401143018370470A460021018B0C
:104DD000C1F30E014FF6FF7303EA02231943018367
:104DE00070470A460021818B4FF67F7319401143AB
:104DF000818370470A460021818BC1F30E014FF673
:104E0000FF7303EA02231943818370470A46002196
:104E1000018C4FF6FD7319401143018470470A4617
:104E20000021018C4FF6F77319401143018470473C
:104E30000A460021018C4FF6DF7319404FF6FF73CD
:104E400003EA02131943018470470A460021018CCA
:104E50004FF67F7319404FF6FF7303EA02131943AD
:104E6000018470470A460021018C4FF6FF53194018
:104E70004FF6FF7303EA02231943018470470A4681
:104E80000021018C4FF2FF7319404FF6FF7303EAC4
:104E900002231943018470470A460021018C4DF614
:104EA000FF7319404FF6FF7303EA0233194301847D
:104EB000704710B5038C01248C40A3430384038CFA
:104EC00002FA01F4A4B22343038410BD10B5038C8D
:104ED00004248C40A3430384038C02FA01F4A4B29B
:104EE0002343038410BD30B5038C01248C40A343BD
:104EF000038409B1082918D100F1180303EB6103F9
:104F00001B684FF68F74234000F1180404EB610412
:104F1000236000F1180303EB61031B68134300F1E6
:104F2000180404EB610423601FE00B1FC3F34E045D
:104F300000F118031B5948F6FF7423400C1FC4F3FB
:104F40004E0500F1180463510B1FC3F34E0400F12A
:104F500018031B594FF6FF7404EA022423430C1F65
:104F6000C4F34E0500F11804635130BD21B102882D
:104F700042F00202028004E0028840F2FD331A404F
:104F80000280704721B1028842F00402028004E0EE
:104F9000028840F2FB331A400280704721B18288B8
:104FA00042F08002828004E082884FF67F731A40CC
:104FB00082807047028840F2F7331A4002800288EC
:104FC0000A430280704782884FF68F731A408280AE
:104FD00082880A438280704702894FF6F8731A402C
:104FE000028102890A430281704702894FF67F736A
:104FF0001A40028102890A43028170478184704706
:105000008185704781867047018770478187704727
:10501000A0F8401070470288D2B2028002880A438A
:10502000028070470146888E70470146088F70479E
:105030000146888F70470146B1F84000704701462D
:10504000888C70470146088D704702460020138AFD
:105050000B4201D0012000E000207047CA430282C9
:10506000704730B50246002000230024158A05EA67
:105070000103958905EA010413B10CB1012000E098
:10508000002030BDCA43028270470000016821F051
:10509000010101600021016041608160C160864AB8
:1050A000811A90425BD012DC844AA0EB020190424C
:1050B0003AD007DC824941181BD0142922D0282974
:1050C0007AD128E0142938D0282975D13EE0B1F5ED
:1050D0006C7F5BD006DCB1F5627F49D0B1F5677FAC
:1050E0006AD14CE0B1F5717F57D0B1F5767F63D1CD
:1050F0005BE072494439496841F00F016F4A443A14
:1051000051605AE06D494439496841F0F0016B4AF9
:10511000443A516051E069494439496841F4706149
:10512000664A443A516048E064494439496841F468
:105130007041624A443A51603FE0604944394968ED
:1051400041F470215D4A443A516036E05B4944398C
:10515000496841F47001594A443A51602DE0574979
:105160004439496841F07061544A443A516024E03E
:105170005449096841F00F01524A11601DE051493C
:10518000096841F0F0014F4A116016E04D49096885
:1051900041F470614B4A11600FE04A49096841F4DB
:1051A0007041484A116008E006E04649096841F448
:1051B0007021444A116000E000BF00BF704710B585
:1051C0000022026847F6F0739A430C6A8B68234307
:1051D0000C6923434C6923438C692343CC692343E3
:1051E0004C6A23438C6A23431A430260CB684360B2
:1051F0000B6883604B68C36010BD00210160416093
:105200008160C160016141618161C161016241628E
:105210008162704721B1026842F00102026003E03E
:10522000026822F00102026070471AB103680B4362
:10523000036002E003688B430360704701464868DF
:1052400080B2704701460020002211F0805F03D039
:105250001C4B1B1F1A6802E0184B443B1A680A4299
:1052600001D0012000E00020704710F0805F02D0E4
:105270001449086002E0114944394860704701460A
:105280000020002211F0805F03D00E4B1B1F1A6814
:1052900002E00A4B443B1A680A4201D0012000E0B8
:1052A0000020704710F0805F02D00649086002E0DD
:1052B000024944394860704780000240440002407F
:1052C000F8FFFDBF0404024001460020FB4A1068BD
:1052D00000F03800084310607047F849096821F071
:1052E0000801F64A116011460968014311607047D0
:1052F000F249096821F01001F04A1160114609686D
:10530000014311607047EE48EC494860ED48486041
:105310007047EA48006940F08000E849086170473A
:105320000420E649C96811F0010F01D001200EE008
:10533000E249C96811F0040F01D0022007E0DF49FB
:10534000C96811F0100F01D0032000E0042070475D
:1053500008B500200090FF20009002E00098401E59
:10536000009000980028F9D108BD70B504460425C6
:10537000FFF7D6FF054605E0FFF7EAFFFFF7D0FF8E
:105380000546641E012D01D1002CF5D104B9052577
:10539000284670BD70B50546042440F6FF70FFF73F
:1053A000E4FF0446042C19D1C448006940F002000F
:1053B000C249086108464561006940F04000086143
:1053C00040F6FF70FFF7D1FF0446012C06D0BB4822
:1053D000006941F6FD710840B8490861204670BD7A
:1053E00010B5042440F6FF70FFF7BFFF0446042CFD
:1053F00018D1B248006940F00400B049086108467D
:10540000006940F04000086140F6FF70FFF7ADFF13
:105410000446012C06D0A948006941F6FB710840FA
:10542000A6490861204610BD10B5042440F6FF705F
:10543000FFF79BFF0446042C3BD1A1489F4988609D
:10544000A04888600846006940F0200008610846CE
:10545000006940F04000086140F6FF70FFF785FFEB
:105460000446042C1CD19548006941F6DF710840C0
:10547000924908610846006940F010000861A520C3
:10548000914908800F20FFF770FF0446012C10D0CF
:105490008A48006941F6EF7108408849086108E0D0
:1054A000012C06D08548006941F6EF710840834918
:1054B0000861204610BD70B505460E4604240F2035
:1054C000FFF753FF0446042C25D17C48006940F0C7
:1054D00001007A4908612E800F20FFF746FF04463D
:1054E000042C0FD1300C68800F20FFF73EFF0446DC
:1054F000012C10D07148006941F6FE7108406F49D7
:10550000086108E0012C06D06C48006941F6FE7184
:1055100008406A490861204670BD70B505460E46D0
:1055200004240F20FFF721FF0446042C13D1634805
:10553000006940F00100614908612E800F20FFF7EB
:1055400014FF0446012C06D05C48006941F6FE7148
:1055500008405A490861204670BD70B505460E46A0
:1055600004240F20FFF701FF0446042C17D15448F0
:1055700052498860534888600846006940F010002E
:1055800008612E800F20FFF7F0FE0446012C06D0A4
:105590004A48006941F6EF710840484908612046D1
:1055A00070BD2DE9F04704464FF6FF763746B0460A
:1055B000B1460425E443E6B2C4F30727C4F3074821
:1055C0004FEA14690F20FFF7D0FE0546042D40D1A5
:1055D0003B483A4988603B4888600846006940F08B
:1055E00010000861FF2E06D03748083006800F20D3
:1055F000FFF7BBFE0546042D08D1FF2F06D0324829
:105600000A3007800F20FFF7B0FE0546042D0AD1AF
:10561000B8F1FF0F07D02C480C30A0F800800F2005
:10562000FFF7A3FE0546042D0AD1B9F1FF0F07D0FD
:1056300025480E30A0F800900F20FFF796FE054693
:10564000012D06D01D48006941F6EF7108401B4945
:1056500008612846BDE8F08770B50546042440F689
:10566000FF70FFF782FE0446042C4AD11448134908
:105670008860144888600846006940F0200008618E
:105680000846006940F04000086140F6FF70FFF7EF
:105690006CFE0446042C2BD10848006941F6DF71EA
:1056A0000840064908610846006940F0100008619A
:1056B00065B10020044908800BE000000020024092
:1056C00023016745AB89EFCD00F8FF1FA5204549B1
:1056D000088040F6FF70FFF748FE0446012C10D00A
:1056E0004148006941F6EF7108403F49086108E010
:1056F000012C06D03C48006941F6DF7108403A4968
:105700000861204670BD2DE9F04107460D4616465A
:105710000424364834498860354888600F20FFF7F4
:1057200024FE0446042C1AD12F48006940F01000D2
:105730002D49086147EA0500304340F0F800294947
:10574000891C08800F20FFF710FE0446012C06D0AC
:105750002548006941F6EF71084023490861204659
:10576000BDE8F0812048C069800870471E48006A83
:10577000704700201C49C96911F0020F01D00120B7
:1057800000E00020704700201749096811F0200F41
:1057900001D0012000E00020704729B1124A1269AF
:1057A0000243114B1A6104E00F4A126982430E4B07
:1057B0001A61704701460020012908D10A4AD269BE
:1057C00012F0010F01D0012008E0002006E0064A97
:1057D000D2680A4201D0012000E00020704702494F
:1057E000C860704700F8FF1F002002402301674592
:1057F000AB89EFCD0CB500200190009047480068C0
:1058000040F480304549086000BF4448006800F417
:10581000003000900198401C0190009818B9019840
:10582000B0F5A06FF1D13D48006810F4003F02D000
:105830000120009001E0002000900098012843D151
:105840003748006840F01000354908600846006895
:1058500020F0030008600846006840F0020008607D
:105860002E4840682D494860084640684860084610
:10587000406840F4806048600846406820F47C102E
:1058800048600846406840F4E810486008460068F0
:1058900040F08070086000BF2048006810F0007F72
:1058A000FAD01E48406820F003001C4948600846B2
:1058B000406840F00200486000BF1848406800F0AF
:1058C0000C000828F9D101E000BFFEE70CBD10B5BF
:1058D000FFF790FF10BD10B51048006840F00100C0
:1058E0000E490860084640680E4908400B49486068
:1058F000084600680C4908400849086008460068E6
:1059000020F4802008600846406820F4FE004860CB
:1059100000208860FFF7DBFF10BD00000010024090
:10592000002002400000FFF8FFFFF6FEF0B480EA1E
:105930000102D40F4200B2EB410F02D202460846E8
:1059400011464A0042D0C30DDDB2C1F3C752AD1AB1
:10595000202D35DAC1F3160141F4000204B15242A0
:10596000C5F1200602FA06F12A411044B3EBD05FDC
:1059700023D0C4B1012DA0EBC35009DCF0BC4FF023
:10598000004202EAC35200F50000DBB200F03CBB6B
:10599000400000F1807000EBC350A0F1807040EA3D
:1059A000D170490009E0490841EAC071A0EBC35039
:1059B00000F50000400800EBC350F0BC00F01BBB3A
:1059C0006142012202EB4101001BF6E7F0BC704787
:1059D00081F00041AAE780F00040A7E780EA0102D9
:1059E00010B502F00043400026D04A0023D04FEA11
:1059F000106101EB1261C0F35600C2F3560240F48D
:105A0000000042F40002A0FB0220A1F17F014FEA56
:105A10000040140401D000F1010050EA124001D40A
:105A20004000491EC2B20C0604EBD010401C4008D6
:105A3000802A02D003E0002010BD20F001000029E0
:105A400000DA0020184310BD30B480EA010202F0F1
:105A5000004530F0004221F0004015D0A0B1C0F365
:105A6000C753C2F3C754C2F31601C0F31600E41AB9
:105A700041F4000140F400027D34914201D3641CE2
:105A800000E04900002C02DA30BC002070474FF4DF
:105A900000000023914201D3891A034340084FEAD2
:105AA0004101F7D151B1914202D14FF0004105E0DF
:105AB00002D24FF0010101E06FF0010103EBC4508D
:105AC000284430BC00F097BA2DE9FE4F804681EAA9
:105AD0000300C00F0C46009021F0004123F0004568
